{
  "_format": "hh-sol-artifact-1",
  "contractName": "MankiNFT",
  "sourceName": "contracts/MankiNFT.sol",
  "abi": [
    {
      "inputs": [],
      "stateMutability": "payable",
      "type": "constructor"
    },
    {
      "anonymous": false,
      "inputs": [
        {
          "indexed": true,
          "internalType": "address",
          "name": "owner",
          "type": "address"
        },
        {
          "indexed": true,
          "internalType": "address",
          "name": "approved",
          "type": "address"
        },
        {
          "indexed": true,
          "internalType": "uint256",
          "name": "tokenId",
          "type": "uint256"
        }
      ],
      "name": "Approval",
      "type": "event"
    },
    {
      "anonymous": false,
      "inputs": [
        {
          "indexed": true,
          "internalType": "address",
          "name": "owner",
          "type": "address"
        },
        {
          "indexed": true,
          "internalType": "address",
          "name": "operator",
          "type": "address"
        },
        {
          "indexed": false,
          "internalType": "bool",
          "name": "approved",
          "type": "bool"
        }
      ],
      "name": "ApprovalForAll",
      "type": "event"
    },
    {
      "anonymous": false,
      "inputs": [
        {
          "indexed": true,
          "internalType": "address",
          "name": "previousOwner",
          "type": "address"
        },
        {
          "indexed": true,
          "internalType": "address",
          "name": "newOwner",
          "type": "address"
        }
      ],
      "name": "OwnershipTransferred",
      "type": "event"
    },
    {
      "anonymous": false,
      "inputs": [
        {
          "indexed": true,
          "internalType": "address",
          "name": "from",
          "type": "address"
        },
        {
          "indexed": true,
          "internalType": "address",
          "name": "to",
          "type": "address"
        },
        {
          "indexed": true,
          "internalType": "uint256",
          "name": "tokenId",
          "type": "uint256"
        }
      ],
      "name": "Transfer",
      "type": "event"
    },
    {
      "inputs": [
        {
          "internalType": "address",
          "name": "to",
          "type": "address"
        },
        {
          "internalType": "uint256",
          "name": "tokenId",
          "type": "uint256"
        }
      ],
      "name": "approve",
      "outputs": [],
      "stateMutability": "nonpayable",
      "type": "function"
    },
    {
      "inputs": [
        {
          "internalType": "address",
          "name": "owner",
          "type": "address"
        }
      ],
      "name": "balanceOf",
      "outputs": [
        {
          "internalType": "uint256",
          "name": "",
          "type": "uint256"
        }
      ],
      "stateMutability": "view",
      "type": "function"
    },
    {
      "inputs": [
        {
          "internalType": "uint256",
          "name": "tokenId",
          "type": "uint256"
        }
      ],
      "name": "getApproved",
      "outputs": [
        {
          "internalType": "address",
          "name": "",
          "type": "address"
        }
      ],
      "stateMutability": "view",
      "type": "function"
    },
    {
      "inputs": [
        {
          "internalType": "address",
          "name": "owner",
          "type": "address"
        },
        {
          "internalType": "address",
          "name": "operator",
          "type": "address"
        }
      ],
      "name": "isApprovedForAll",
      "outputs": [
        {
          "internalType": "bool",
          "name": "",
          "type": "bool"
        }
      ],
      "stateMutability": "view",
      "type": "function"
    },
    {
      "inputs": [],
      "name": "isPublicMintEnabled",
      "outputs": [
        {
          "internalType": "bool",
          "name": "",
          "type": "bool"
        }
      ],
      "stateMutability": "view",
      "type": "function"
    },
    {
      "inputs": [],
      "name": "maxPerWallet",
      "outputs": [
        {
          "internalType": "uint256",
          "name": "",
          "type": "uint256"
        }
      ],
      "stateMutability": "view",
      "type": "function"
    },
    {
      "inputs": [],
      "name": "maxSupply",
      "outputs": [
        {
          "internalType": "uint256",
          "name": "",
          "type": "uint256"
        }
      ],
      "stateMutability": "view",
      "type": "function"
    },
    {
      "inputs": [
        {
          "internalType": "uint256",
          "name": "quantity_",
          "type": "uint256"
        }
      ],
      "name": "mint",
      "outputs": [],
      "stateMutability": "payable",
      "type": "function"
    },
    {
      "inputs": [],
      "name": "mintPrice",
      "outputs": [
        {
          "internalType": "uint256",
          "name": "",
          "type": "uint256"
        }
      ],
      "stateMutability": "view",
      "type": "function"
    },
    {
      "inputs": [],
      "name": "name",
      "outputs": [
        {
          "internalType": "string",
          "name": "",
          "type": "string"
        }
      ],
      "stateMutability": "view",
      "type": "function"
    },
    {
      "inputs": [],
      "name": "owner",
      "outputs": [
        {
          "internalType": "address",
          "name": "",
          "type": "address"
        }
      ],
      "stateMutability": "view",
      "type": "function"
    },
    {
      "inputs": [
        {
          "internalType": "uint256",
          "name": "tokenId",
          "type": "uint256"
        }
      ],
      "name": "ownerOf",
      "outputs": [
        {
          "internalType": "address",
          "name": "",
          "type": "address"
        }
      ],
      "stateMutability": "view",
      "type": "function"
    },
    {
      "inputs": [],
      "name": "renounceOwnership",
      "outputs": [],
      "stateMutability": "nonpayable",
      "type": "function"
    },
    {
      "inputs": [
        {
          "internalType": "address",
          "name": "from",
          "type": "address"
        },
        {
          "internalType": "address",
          "name": "to",
          "type": "address"
        },
        {
          "internalType": "uint256",
          "name": "tokenId",
          "type": "uint256"
        }
      ],
      "name": "safeTransferFrom",
      "outputs": [],
      "stateMutability": "nonpayable",
      "type": "function"
    },
    {
      "inputs": [
        {
          "internalType": "address",
          "name": "from",
          "type": "address"
        },
        {
          "internalType": "address",
          "name": "to",
          "type": "address"
        },
        {
          "internalType": "uint256",
          "name": "tokenId",
          "type": "uint256"
        },
        {
          "internalType": "bytes",
          "name": "data",
          "type": "bytes"
        }
      ],
      "name": "safeTransferFrom",
      "outputs": [],
      "stateMutability": "nonpayable",
      "type": "function"
    },
    {
      "inputs": [
        {
          "internalType": "address",
          "name": "operator",
          "type": "address"
        },
        {
          "internalType": "bool",
          "name": "approved",
          "type": "bool"
        }
      ],
      "name": "setApprovalForAll",
      "outputs": [],
      "stateMutability": "nonpayable",
      "type": "function"
    },
    {
      "inputs": [],
      "name": "setPublicMintEnabledOrDisabled",
      "outputs": [],
      "stateMutability": "nonpayable",
      "type": "function"
    },
    {
      "inputs": [
        {
          "internalType": "string",
          "name": "baseTokenUri_",
          "type": "string"
        }
      ],
      "name": "setTokenUri",
      "outputs": [],
      "stateMutability": "nonpayable",
      "type": "function"
    },
    {
      "inputs": [
        {
          "internalType": "bytes4",
          "name": "interfaceId",
          "type": "bytes4"
        }
      ],
      "name": "supportsInterface",
      "outputs": [
        {
          "internalType": "bool",
          "name": "",
          "type": "bool"
        }
      ],
      "stateMutability": "view",
      "type": "function"
    },
    {
      "inputs": [],
      "name": "symbol",
      "outputs": [
        {
          "internalType": "string",
          "name": "",
          "type": "string"
        }
      ],
      "stateMutability": "view",
      "type": "function"
    },
    {
      "inputs": [
        {
          "internalType": "uint256",
          "name": "tokenId_",
          "type": "uint256"
        }
      ],
      "name": "tokenURI",
      "outputs": [
        {
          "internalType": "string",
          "name": "",
          "type": "string"
        }
      ],
      "stateMutability": "view",
      "type": "function"
    },
    {
      "inputs": [],
      "name": "totalSypply",
      "outputs": [
        {
          "internalType": "uint256",
          "name": "",
          "type": "uint256"
        }
      ],
      "stateMutability": "view",
      "type": "function"
    },
    {
      "inputs": [
        {
          "internalType": "address",
          "name": "from",
          "type": "address"
        },
        {
          "internalType": "address",
          "name": "to",
          "type": "address"
        },
        {
          "internalType": "uint256",
          "name": "tokenId",
          "type": "uint256"
        }
      ],
      "name": "transferFrom",
      "outputs": [],
      "stateMutability": "nonpayable",
      "type": "function"
    },
    {
      "inputs": [
        {
          "internalType": "address",
          "name": "newOwner",
          "type": "address"
        }
      ],
      "name": "transferOwnership",
      "outputs": [],
      "stateMutability": "nonpayable",
      "type": "function"
    },
    {
      "inputs": [
        {
          "internalType": "address",
          "name": "",
          "type": "address"
        }
      ],
      "name": "walletMints",
      "outputs": [
        {
          "internalType": "uint256",
          "name": "",
          "type": "uint256"
        }
      ],
      "stateMutability": "view",
      "type": "function"
    },
    {
      "inputs": [],
      "name": "withdraw",
      "outputs": [],
      "stateMutability": "nonpayable",
      "type": "function"
    },
    {
      "inputs": [],
      "name": "withdrawWallet",
      "outputs": [
        {
          "internalType": "address payable",
          "name": "",
          "type": "address"
        }
      ],
      "stateMutability": "view",
      "type": "function"
    }
  ],
  "bytecode": "0x60806040526040518060400160405280600881526020017f4d616e6b694e46540000000000000000000000000000000000000000000000008152506040518060400160405280600381526020017f4d4e4b0000000000000000000000000000000000000000000000000000000000815250816000908051906020019062000088929190620001bf565b508060019080519060200190620000a1929190620001bf565b505050620000c4620000b8620000f160201b60201c565b620000f960201b60201c565b66470de4df82000060078190555060006008819055506103e86009819055506003600a81905550620002d4565b600033905090565b6000600660009054906101000a900473ffffffffffffffffffffffffffffffffffffffff16905081600660006101000a81548173ffffffffffffffffffffffffffffffffffffffff021916908373ffffffffffffffffffffffffffffffffffffffff1602179055508173ffffffffffffffffffffffffffffffffffffffff168173ffffffffffffffffffffffffffffffffffffffff167f8be0079c531659141344cd1fd0a4f28419497f9722a3daafe3b4186f6b6457e060405160405180910390a35050565b828054620001cd906200029e565b90600052602060002090601f016020900481019282620001f157600085556200023d565b82601f106200020c57805160ff19168380011785556200023d565b828001600101855582156200023d579182015b828111156200023c5782518255916020019190600101906200021f565b5b5090506200024c919062000250565b5090565b5b808211156200026b57600081600090555060010162000251565b5090565b7f4e487b7100000000000000000000000000000000000000000000000000000000600052602260045260246000fd5b60006002820490506001821680620002b757607f821691505b60208210811415620002ce57620002cd6200026f565b5b50919050565b61345f80620002e46000396000f3fe60806040526004361061019c5760003560e01c8063715018a6116100ec578063b88d4fde1161008a578063d5abeb0111610064578063d5abeb0114610581578063e985e9c5146105ac578063f0293fd3146105e9578063f2fde38b146106265761019c565b8063b88d4fde146104f0578063c87b56dd14610519578063cd5bbd20146105565761019c565b80638fdeb6e2116100c65780638fdeb6e21461046957806395d89b4114610480578063a0712d68146104ab578063a22cb465146104c75761019c565b8063715018a6146103fc57806385d178f4146104135780638da5cb5b1461043e5761019c565b806323b872dd11610159578063453c231011610133578063453c23101461032c5780636352211e146103575780636817c76c1461039457806370a08231146103bf5761019c565b806323b872dd146102c35780633ccfd60b146102ec57806342842e0e146103035761019c565b80630116bc2d146101a157806301ffc9a7146101cc5780630675b7c61461020957806306fdde0314610232578063081812fc1461025d578063095ea7b31461029a575b600080fd5b3480156101ad57600080fd5b506101b661064f565b6040516101c39190611f73565b60405180910390f35b3480156101d857600080fd5b506101f360048036038101906101ee9190611ffa565b610662565b6040516102009190611f73565b60405180910390f35b34801561021557600080fd5b50610230600480360381019061022b919061208c565b610744565b005b34801561023e57600080fd5b50610247610762565b6040516102549190612172565b60405180910390f35b34801561026957600080fd5b50610284600480360381019061027f91906121ca565b6107f4565b6040516102919190612238565b60405180910390f35b3480156102a657600080fd5b506102c160048036038101906102bc919061227f565b61083a565b005b3480156102cf57600080fd5b506102ea60048036038101906102e591906122bf565b610952565b005b3480156102f857600080fd5b506103016109b2565b005b34801561030f57600080fd5b5061032a600480360381019061032591906122bf565b610a8b565b005b34801561033857600080fd5b50610341610aab565b60405161034e9190612321565b60405180910390f35b34801561036357600080fd5b5061037e600480360381019061037991906121ca565b610ab1565b60405161038b9190612238565b60405180910390f35b3480156103a057600080fd5b506103a9610b63565b6040516103b69190612321565b60405180910390f35b3480156103cb57600080fd5b506103e660048036038101906103e1919061233c565b610b69565b6040516103f39190612321565b60405180910390f35b34801561040857600080fd5b50610411610c21565b005b34801561041f57600080fd5b50610428610c35565b604051610435919061238a565b60405180910390f35b34801561044a57600080fd5b50610453610c5b565b6040516104609190612238565b60405180910390f35b34801561047557600080fd5b5061047e610c85565b005b34801561048c57600080fd5b50610495610cb9565b6040516104a29190612172565b60405180910390f35b6104c560048036038101906104c091906121ca565b610d4b565b005b3480156104d357600080fd5b506104ee60048036038101906104e991906123d1565b610f22565b005b3480156104fc57600080fd5b5061051760048036038101906105129190612541565b610f38565b005b34801561052557600080fd5b50610540600480360381019061053b91906121ca565b610f9a565b60405161054d9190612172565b60405180910390f35b34801561056257600080fd5b5061056b611016565b6040516105789190612321565b60405180910390f35b34801561058d57600080fd5b5061059661101c565b6040516105a39190612321565b60405180910390f35b3480156105b857600080fd5b506105d360048036038101906105ce91906125c4565b611022565b6040516105e09190611f73565b60405180910390f35b3480156105f557600080fd5b50610610600480360381019061060b919061233c565b6110b6565b60405161061d9190612321565b60405180910390f35b34801561063257600080fd5b5061064d6004803603810190610648919061233c565b6110ce565b005b600b60009054906101000a900460ff1681565b60007f80ac58cd000000000000000000000000000000000000000000000000000000007bffffffffffffffffffffffffffffffffffffffffffffffffffffffff1916827bffffffffffffffffffffffffffffffffffffffffffffffffffffffff1916148061072d57507f5b5e139f000000000000000000000000000000000000000000000000000000007bffffffffffffffffffffffffffffffffffffffffffffffffffffffff1916827bffffffffffffffffffffffffffffffffffffffffffffffffffffffff1916145b8061073d575061073c82611152565b5b9050919050565b61074c6111bc565b8181600c919061075d929190611eb5565b505050565b60606000805461077190612633565b80601f016020809104026020016040519081016040528092919081815260200182805461079d90612633565b80156107ea5780601f106107bf576101008083540402835291602001916107ea565b820191906000526020600020905b8154815290600101906020018083116107cd57829003601f168201915b5050505050905090565b60006107ff8261123a565b6004600083815260200190815260200160002060009054906101000a900473ffffffffffffffffffffffffffffffffffffffff169050919050565b600061084582610ab1565b90508073ffffffffffffffffffffffffffffffffffffffff168373ffffffffffffffffffffffffffffffffffffffff1614156108b6576040517f08c379a00000000000000000000000000000000000000000000000000000000081526004016108ad906126d7565b60405180910390fd5b8073ffffffffffffffffffffffffffffffffffffffff166108d5611285565b73ffffffffffffffffffffffffffffffffffffffff1614806109045750610903816108fe611285565b611022565b5b610943576040517f08c379a000000000000000000000000000000000000000000000000000000000815260040161093a90612769565b60405180910390fd5b61094d838361128d565b505050565b61096361095d611285565b82611346565b6109a2576040517f08c379a0000000000000000000000000000000000000000000000000000000008152600401610999906127fb565b60405180910390fd5b6109ad8383836113db565b505050565b6109ba6111bc565b6000600d60009054906101000a900473ffffffffffffffffffffffffffffffffffffffff1673ffffffffffffffffffffffffffffffffffffffff1647604051610a029061284c565b60006040518083038185875af1925050503d8060008114610a3f576040519150601f19603f3d011682016040523d82523d6000602084013e610a44565b606091505b5050905080610a88576040517f08c379a0000000000000000000000000000000000000000000000000000000008152600401610a7f906128ad565b60405180910390fd5b50565b610aa683838360405180602001604052806000815250610f38565b505050565b600a5481565b6000806002600084815260200190815260200160002060009054906101000a900473ffffffffffffffffffffffffffffffffffffffff169050600073ffffffffffffffffffffffffffffffffffffffff168173ffffffffffffffffffffffffffffffffffffffff161415610b5a576040517f08c379a0000000000000000000000000000000000000000000000000000000008152600401610b5190612919565b60405180910390fd5b80915050919050565b60075481565b60008073ffffffffffffffffffffffffffffffffffffffff168273ffffffffffffffffffffffffffffffffffffffff161415610bda576040517f08c379a0000000000000000000000000000000000000000000000000000000008152600401610bd1906129ab565b60405180910390fd5b600360008373ffffffffffffffffffffffffffffffffffffffff1673ffffffffffffffffffffffffffffffffffffffff168152602001908152602001600020549050919050565b610c296111bc565b610c336000611642565b565b600d60009054906101000a900473ffffffffffffffffffffffffffffffffffffffff1681565b6000600660009054906101000a900473ffffffffffffffffffffffffffffffffffffffff16905090565b610c8d6111bc565b600b60009054906101000a900460ff1615600b60006101000a81548160ff021916908315150217905550565b606060018054610cc890612633565b80601f0160208091040260200160405190810160405280929190818152602001828054610cf490612633565b8015610d415780601f10610d1657610100808354040283529160200191610d41565b820191906000526020600020905b815481529060010190602001808311610d2457829003601f168201915b5050505050905090565b600b60009054906101000a900460ff16610d9a576040517f08c379a0000000000000000000000000000000000000000000000000000000008152600401610d9190612a17565b60405180910390fd5b60075481610da89190612a66565b3414610de9576040517f08c379a0000000000000000000000000000000000000000000000000000000008152600401610de090612b0c565b60405180910390fd5b60095481600854610dfa9190612b2c565b1115610e3b576040517f08c379a0000000000000000000000000000000000000000000000000000000008152600401610e3290612bce565b60405180910390fd5b600a5481600e60003373ffffffffffffffffffffffffffffffffffffffff1673ffffffffffffffffffffffffffffffffffffffff16815260200190815260200160002054610e899190612b2c565b1115610eca576040517f08c379a0000000000000000000000000000000000000000000000000000000008152600401610ec190612c3a565b60405180910390fd5b60005b81811015610f1e5760006001600854610ee69190612b2c565b905060086000815480929190610efb90612c5a565b9190505550610f0a3382611708565b508080610f1690612c5a565b915050610ecd565b5050565b610f34610f2d611285565b8383611726565b5050565b610f49610f43611285565b83611346565b610f88576040517f08c379a0000000000000000000000000000000000000000000000000000000008152600401610f7f906127fb565b60405180910390fd5b610f9484848484611893565b50505050565b6060610fa5826118ef565b610fe4576040517f08c379a0000000000000000000000000000000000000000000000000000000008152600401610fdb90612cef565b60405180910390fd5b600c610fef8361195b565b604051602001611000929190612e2b565b6040516020818303038152906040529050919050565b60085481565b60095481565b6000600560008473ffffffffffffffffffffffffffffffffffffffff1673ffffffffffffffffffffffffffffffffffffffff16815260200190815260200160002060008373ffffffffffffffffffffffffffffffffffffffff1673ffffffffffffffffffffffffffffffffffffffff16815260200190815260200160002060009054906101000a900460ff16905092915050565b600e6020528060005260406000206000915090505481565b6110d66111bc565b600073ffffffffffffffffffffffffffffffffffffffff168173ffffffffffffffffffffffffffffffffffffffff161415611146576040517f08c379a000000000000000000000000000000000000000000000000000000000815260040161113d90612ecc565b60405180910390fd5b61114f81611642565b50565b60007f01ffc9a7000000000000000000000000000000000000000000000000000000007bffffffffffffffffffffffffffffffffffffffffffffffffffffffff1916827bffffffffffffffffffffffffffffffffffffffffffffffffffffffff1916149050919050565b6111c4611285565b73ffffffffffffffffffffffffffffffffffffffff166111e2610c5b565b73ffffffffffffffffffffffffffffffffffffffff1614611238576040517f08c379a000000000000000000000000000000000000000000000000000000000815260040161122f90612f38565b60405180910390fd5b565b611243816118ef565b611282576040517f08c379a000000000000000000000000000000000000000000000000000000000815260040161127990612919565b60405180910390fd5b50565b600033905090565b816004600083815260200190815260200160002060006101000a81548173ffffffffffffffffffffffffffffffffffffffff021916908373ffffffffffffffffffffffffffffffffffffffff160217905550808273ffffffffffffffffffffffffffffffffffffffff1661130083610ab1565b73ffffffffffffffffffffffffffffffffffffffff167f8c5be1e5ebec7d5bd14f71427d1e84f3dd0314c0f7b2291e5b200ac8c7c3b92560405160405180910390a45050565b60008061135283610ab1565b90508073ffffffffffffffffffffffffffffffffffffffff168473ffffffffffffffffffffffffffffffffffffffff16148061139457506113938185611022565b5b806113d257508373ffffffffffffffffffffffffffffffffffffffff166113ba846107f4565b73ffffffffffffffffffffffffffffffffffffffff16145b91505092915050565b8273ffffffffffffffffffffffffffffffffffffffff166113fb82610ab1565b73ffffffffffffffffffffffffffffffffffffffff1614611451576040517f08c379a000000000000000000000000000000000000000000000000000000000815260040161144890612fca565b60405180910390fd5b600073ffffffffffffffffffffffffffffffffffffffff168273ffffffffffffffffffffffffffffffffffffffff1614156114c1576040517f08c379a00000000000000000000000000000000000000000000000000000000081526004016114b89061305c565b60405180910390fd5b6114cc838383611abc565b6114d760008261128d565b6001600360008573ffffffffffffffffffffffffffffffffffffffff1673ffffffffffffffffffffffffffffffffffffffff1681526020019081526020016000206000828254611527919061307c565b925050819055506001600360008473ffffffffffffffffffffffffffffffffffffffff1673ffffffffffffffffffffffffffffffffffffffff168152602001908152602001600020600082825461157e9190612b2c565b92505081905550816002600083815260200190815260200160002060006101000a81548173ffffffffffffffffffffffffffffffffffffffff021916908373ffffffffffffffffffffffffffffffffffffffff160217905550808273ffffffffffffffffffffffffffffffffffffffff168473ffffffffffffffffffffffffffffffffffffffff167fddf252ad1be2c89b69c2b068fc378daa952ba7f163c4a11628f55a4df523b3ef60405160405180910390a461163d838383611ac1565b505050565b6000600660009054906101000a900473ffffffffffffffffffffffffffffffffffffffff16905081600660006101000a81548173ffffffffffffffffffffffffffffffffffffffff021916908373ffffffffffffffffffffffffffffffffffffffff1602179055508173ffffffffffffffffffffffffffffffffffffffff168173ffffffffffffffffffffffffffffffffffffffff167f8be0079c531659141344cd1fd0a4f28419497f9722a3daafe3b4186f6b6457e060405160405180910390a35050565b611722828260405180602001604052806000815250611ac6565b5050565b8173ffffffffffffffffffffffffffffffffffffffff168373ffffffffffffffffffffffffffffffffffffffff161415611795576040517f08c379a000000000000000000000000000000000000000000000000000000000815260040161178c906130fc565b60405180910390fd5b80600560008573ffffffffffffffffffffffffffffffffffffffff1673ffffffffffffffffffffffffffffffffffffffff16815260200190815260200160002060008473ffffffffffffffffffffffffffffffffffffffff1673ffffffffffffffffffffffffffffffffffffffff16815260200190815260200160002060006101000a81548160ff0219169083151502179055508173ffffffffffffffffffffffffffffffffffffffff168373ffffffffffffffffffffffffffffffffffffffff167f17307eab39ab6107e8899845ad3d59bd9653f200f220920489ca2b5937696c31836040516118869190611f73565b60405180910390a3505050565b61189e8484846113db565b6118aa84848484611b21565b6118e9576040517f08c379a00000000000000000000000000000000000000000000000000000000081526004016118e09061318e565b60405180910390fd5b50505050565b60008073ffffffffffffffffffffffffffffffffffffffff166002600084815260200190815260200160002060009054906101000a900473ffffffffffffffffffffffffffffffffffffffff1673ffffffffffffffffffffffffffffffffffffffff1614159050919050565b606060008214156119a3576040518060400160405280600181526020017f30000000000000000000000000000000000000000000000000000000000000008152509050611ab7565b600082905060005b600082146119d55780806119be90612c5a565b915050600a826119ce91906131dd565b91506119ab565b60008167ffffffffffffffff8111156119f1576119f0612416565b5b6040519080825280601f01601f191660200182016040528015611a235781602001600182028036833780820191505090505b5090505b60008514611ab057600182611a3c919061307c565b9150600a85611a4b919061320e565b6030611a579190612b2c565b60f81b818381518110611a6d57611a6c61323f565b5b60200101907effffffffffffffffffffffffffffffffffffffffffffffffffffffffffffff1916908160001a905350600a85611aa991906131dd565b9450611a27565b8093505050505b919050565b505050565b505050565b611ad08383611cb8565b611add6000848484611b21565b611b1c576040517f08c379a0000000000000000000000000000000000000000000000000000000008152600401611b139061318e565b60405180910390fd5b505050565b6000611b428473ffffffffffffffffffffffffffffffffffffffff16611e92565b15611cab578373ffffffffffffffffffffffffffffffffffffffff1663150b7a02611b6b611285565b8786866040518563ffffffff1660e01b8152600401611b8d94939291906132c3565b602060405180830381600087803b158015611ba757600080fd5b505af1925050508015611bd857506040513d601f19601f82011682018060405250810190611bd59190613324565b60015b611c5b573d8060008114611c08576040519150601f19603f3d011682016040523d82523d6000602084013e611c0d565b606091505b50600081511415611c53576040517f08c379a0000000000000000000000000000000000000000000000000000000008152600401611c4a9061318e565b60405180910390fd5b805181602001fd5b63150b7a0260e01b7bffffffffffffffffffffffffffffffffffffffffffffffffffffffff1916817bffffffffffffffffffffffffffffffffffffffffffffffffffffffff191614915050611cb0565b600190505b949350505050565b600073ffffffffffffffffffffffffffffffffffffffff168273ffffffffffffffffffffffffffffffffffffffff161415611d28576040517f08c379a0000000000000000000000000000000000000000000000000000000008152600401611d1f9061339d565b60405180910390fd5b611d31816118ef565b15611d71576040517f08c379a0000000000000000000000000000000000000000000000000000000008152600401611d6890613409565b60405180910390fd5b611d7d60008383611abc565b6001600360008473ffffffffffffffffffffffffffffffffffffffff1673ffffffffffffffffffffffffffffffffffffffff1681526020019081526020016000206000828254611dcd9190612b2c565b92505081905550816002600083815260200190815260200160002060006101000a81548173ffffffffffffffffffffffffffffffffffffffff021916908373ffffffffffffffffffffffffffffffffffffffff160217905550808273ffffffffffffffffffffffffffffffffffffffff16600073ffffffffffffffffffffffffffffffffffffffff167fddf252ad1be2c89b69c2b068fc378daa952ba7f163c4a11628f55a4df523b3ef60405160405180910390a4611e8e60008383611ac1565b5050565b6000808273ffffffffffffffffffffffffffffffffffffffff163b119050919050565b828054611ec190612633565b90600052602060002090601f016020900481019282611ee35760008555611f2a565b82601f10611efc57803560ff1916838001178555611f2a565b82800160010185558215611f2a579182015b82811115611f29578235825591602001919060010190611f0e565b5b509050611f379190611f3b565b5090565b5b80821115611f54576000816000905550600101611f3c565b5090565b60008115159050919050565b611f6d81611f58565b82525050565b6000602082019050611f886000830184611f64565b92915050565b6000604051905090565b600080fd5b600080fd5b60007fffffffff0000000000000000000000000000000000000000000000000000000082169050919050565b611fd781611fa2565b8114611fe257600080fd5b50565b600081359050611ff481611fce565b92915050565b6000602082840312156120105761200f611f98565b5b600061201e84828501611fe5565b91505092915050565b600080fd5b600080fd5b600080fd5b60008083601f84011261204c5761204b612027565b5b8235905067ffffffffffffffff8111156120695761206861202c565b5b60208301915083600182028301111561208557612084612031565b5b9250929050565b600080602083850312156120a3576120a2611f98565b5b600083013567ffffffffffffffff8111156120c1576120c0611f9d565b5b6120cd85828601612036565b92509250509250929050565b600081519050919050565b600082825260208201905092915050565b60005b838110156121135780820151818401526020810190506120f8565b83811115612122576000848401525b50505050565b6000601f19601f8301169050919050565b6000612144826120d9565b61214e81856120e4565b935061215e8185602086016120f5565b61216781612128565b840191505092915050565b6000602082019050818103600083015261218c8184612139565b905092915050565b6000819050919050565b6121a781612194565b81146121b257600080fd5b50565b6000813590506121c48161219e565b92915050565b6000602082840312156121e0576121df611f98565b5b60006121ee848285016121b5565b91505092915050565b600073ffffffffffffffffffffffffffffffffffffffff82169050919050565b6000612222826121f7565b9050919050565b61223281612217565b82525050565b600060208201905061224d6000830184612229565b92915050565b61225c81612217565b811461226757600080fd5b50565b60008135905061227981612253565b92915050565b6000806040838503121561229657612295611f98565b5b60006122a48582860161226a565b92505060206122b5858286016121b5565b9150509250929050565b6000806000606084860312156122d8576122d7611f98565b5b60006122e68682870161226a565b93505060206122f78682870161226a565b9250506040612308868287016121b5565b9150509250925092565b61231b81612194565b82525050565b60006020820190506123366000830184612312565b92915050565b60006020828403121561235257612351611f98565b5b60006123608482850161226a565b91505092915050565b6000612374826121f7565b9050919050565b61238481612369565b82525050565b600060208201905061239f600083018461237b565b92915050565b6123ae81611f58565b81146123b957600080fd5b50565b6000813590506123cb816123a5565b92915050565b600080604083850312156123e8576123e7611f98565b5b60006123f68582860161226a565b9250506020612407858286016123bc565b9150509250929050565b600080fd5b7f4e487b7100000000000000000000000000000000000000000000000000000000600052604160045260246000fd5b61244e82612128565b810181811067ffffffffffffffff8211171561246d5761246c612416565b5b80604052505050565b6000612480611f8e565b905061248c8282612445565b919050565b600067ffffffffffffffff8211156124ac576124ab612416565b5b6124b582612128565b9050602081019050919050565b82818337600083830152505050565b60006124e46124df84612491565b612476565b905082815260208101848484011115612500576124ff612411565b5b61250b8482856124c2565b509392505050565b600082601f83011261252857612527612027565b5b81356125388482602086016124d1565b91505092915050565b6000806000806080858703121561255b5761255a611f98565b5b60006125698782880161226a565b945050602061257a8782880161226a565b935050604061258b878288016121b5565b925050606085013567ffffffffffffffff8111156125ac576125ab611f9d565b5b6125b887828801612513565b91505092959194509250565b600080604083850312156125db576125da611f98565b5b60006125e98582860161226a565b92505060206125fa8582860161226a565b9150509250929050565b7f4e487b7100000000000000000000000000000000000000000000000000000000600052602260045260246000fd5b6000600282049050600182168061264b57607f821691505b6020821081141561265f5761265e612604565b5b50919050565b7f4552433732313a20617070726f76616c20746f2063757272656e74206f776e6560008201527f7200000000000000000000000000000000000000000000000000000000000000602082015250565b60006126c16021836120e4565b91506126cc82612665565b604082019050919050565b600060208201905081810360008301526126f0816126b4565b9050919050565b7f4552433732313a20617070726f76652063616c6c6572206973206e6f7420746f60008201527f6b656e206f776e6572206e6f7220617070726f76656420666f7220616c6c0000602082015250565b6000612753603e836120e4565b915061275e826126f7565b604082019050919050565b6000602082019050818103600083015261278281612746565b9050919050565b7f4552433732313a2063616c6c6572206973206e6f7420746f6b656e206f776e6560008201527f72206e6f7220617070726f766564000000000000000000000000000000000000602082015250565b60006127e5602e836120e4565b91506127f082612789565b604082019050919050565b60006020820190508181036000830152612814816127d8565b9050919050565b600081905092915050565b50565b600061283660008361281b565b915061284182612826565b600082019050919050565b600061285782612829565b9150819050919050565b7f7769746864726177206661696c65640000000000000000000000000000000000600082015250565b6000612897600f836120e4565b91506128a282612861565b602082019050919050565b600060208201905081810360008301526128c68161288a565b9050919050565b7f4552433732313a20696e76616c696420746f6b656e2049440000000000000000600082015250565b60006129036018836120e4565b915061290e826128cd565b602082019050919050565b60006020820190508181036000830152612932816128f6565b9050919050565b7f4552433732313a2061646472657373207a65726f206973206e6f74206120766160008201527f6c6964206f776e65720000000000000000000000000000000000000000000000602082015250565b60006129956029836120e4565b91506129a082612939565b604082019050919050565b600060208201905081810360008301526129c481612988565b9050919050565b7f6d696e74206e6f74207374617274696e67207965740000000000000000000000600082015250565b6000612a016015836120e4565b9150612a0c826129cb565b602082019050919050565b60006020820190508181036000830152612a30816129f4565b9050919050565b7f4e487b7100000000000000000000000000000000000000000000000000000000600052601160045260246000fd5b6000612a7182612194565b9150612a7c83612194565b9250817fffffffffffffffffffffffffffffffffffffffffffffffffffffffffffffffff0483118215151615612ab557612ab4612a37565b5b828202905092915050565b7f7520646f6e2774206861766520656e6f756768206d6f6e657900000000000000600082015250565b6000612af66019836120e4565b9150612b0182612ac0565b602082019050919050565b60006020820190508181036000830152612b2581612ae9565b9050919050565b6000612b3782612194565b9150612b4283612194565b9250827fffffffffffffffffffffffffffffffffffffffffffffffffffffffffffffffff03821115612b7757612b76612a37565b5b828201905092915050565b7f736f6c64206f7574000000000000000000000000000000000000000000000000600082015250565b6000612bb86008836120e4565b9150612bc382612b82565b602082019050919050565b60006020820190508181036000830152612be781612bab565b9050919050565b7f6d6178207065722077616c6c6574000000000000000000000000000000000000600082015250565b6000612c24600e836120e4565b9150612c2f82612bee565b602082019050919050565b60006020820190508181036000830152612c5381612c17565b9050919050565b6000612c6582612194565b91507fffffffffffffffffffffffffffffffffffffffffffffffffffffffffffffffff821415612c9857612c97612a37565b5b600182019050919050565b7f746f6b656e206e6f742065786973747321000000000000000000000000000000600082015250565b6000612cd96011836120e4565b9150612ce482612ca3565b602082019050919050565b60006020820190508181036000830152612d0881612ccc565b9050919050565b600081905092915050565b60008190508160005260206000209050919050565b60008154612d3c81612633565b612d468186612d0f565b94506001821660008114612d615760018114612d7257612da5565b60ff19831686528186019350612da5565b612d7b85612d1a565b60005b83811015612d9d57815481890152600182019150602081019050612d7e565b838801955050505b50505092915050565b6000612db9826120d9565b612dc38185612d0f565b9350612dd38185602086016120f5565b80840191505092915050565b7f2e6a736f6e000000000000000000000000000000000000000000000000000000600082015250565b6000612e15600583612d0f565b9150612e2082612ddf565b600582019050919050565b6000612e378285612d2f565b9150612e438284612dae565b9150612e4e82612e08565b91508190509392505050565b7f4f776e61626c653a206e6577206f776e657220697320746865207a65726f206160008201527f6464726573730000000000000000000000000000000000000000000000000000602082015250565b6000612eb66026836120e4565b9150612ec182612e5a565b604082019050919050565b60006020820190508181036000830152612ee581612ea9565b9050919050565b7f4f776e61626c653a2063616c6c6572206973206e6f7420746865206f776e6572600082015250565b6000612f226020836120e4565b9150612f2d82612eec565b602082019050919050565b60006020820190508181036000830152612f5181612f15565b9050919050565b7f4552433732313a207472616e736665722066726f6d20696e636f72726563742060008201527f6f776e6572000000000000000000000000000000000000000000000000000000602082015250565b6000612fb46025836120e4565b9150612fbf82612f58565b604082019050919050565b60006020820190508181036000830152612fe381612fa7565b9050919050565b7f4552433732313a207472616e7366657220746f20746865207a65726f2061646460008201527f7265737300000000000000000000000000000000000000000000000000000000602082015250565b60006130466024836120e4565b915061305182612fea565b604082019050919050565b6000602082019050818103600083015261307581613039565b9050919050565b600061308782612194565b915061309283612194565b9250828210156130a5576130a4612a37565b5b828203905092915050565b7f4552433732313a20617070726f766520746f2063616c6c657200000000000000600082015250565b60006130e66019836120e4565b91506130f1826130b0565b602082019050919050565b60006020820190508181036000830152613115816130d9565b9050919050565b7f4552433732313a207472616e7366657220746f206e6f6e20455243373231526560008201527f63656976657220696d706c656d656e7465720000000000000000000000000000602082015250565b60006131786032836120e4565b91506131838261311c565b604082019050919050565b600060208201905081810360008301526131a78161316b565b9050919050565b7f4e487b7100000000000000000000000000000000000000000000000000000000600052601260045260246000fd5b60006131e882612194565b91506131f383612194565b925082613203576132026131ae565b5b828204905092915050565b600061321982612194565b915061322483612194565b925082613234576132336131ae565b5b828206905092915050565b7f4e487b7100000000000000000000000000000000000000000000000000000000600052603260045260246000fd5b600081519050919050565b600082825260208201905092915050565b60006132958261326e565b61329f8185613279565b93506132af8185602086016120f5565b6132b881612128565b840191505092915050565b60006080820190506132d86000830187612229565b6132e56020830186612229565b6132f26040830185612312565b8181036060830152613304818461328a565b905095945050505050565b60008151905061331e81611fce565b92915050565b60006020828403121561333a57613339611f98565b5b60006133488482850161330f565b91505092915050565b7f4552433732313a206d696e7420746f20746865207a65726f2061646472657373600082015250565b60006133876020836120e4565b915061339282613351565b602082019050919050565b600060208201905081810360008301526133b68161337a565b9050919050565b7f4552433732313a20746f6b656e20616c7265616479206d696e74656400000000600082015250565b60006133f3601c836120e4565b91506133fe826133bd565b602082019050919050565b60006020820190508181036000830152613422816133e6565b905091905056fea2646970667358221220e66eccc9793cc6db6f971ffa872a3d6035ebfdef4e67377a4a248b22d3c67e0164736f6c63430008090033",
  "linkReferences": {},
  "deployedLinkReferences": {}
}